:020000040800F2
:1000000048BB0120A5020008617300083F540008A6
:100010002D700008BD140008D993000800000000EE
:10002000000000000000000000000000C501000802
:10003000EB16000800000000210200087F8600087F
:10004000BF020008BF020008BF0200085D7E000872
:10005000BF020008BF020008B9170008BF0200086D
:10006000BF020008BF020008BF020008BF0200086C
:10007000BF02000899160008BF020008BF0200086E
:10008000A5160008BF020008BF020008BF02000852
:10009000BF020008BF020008BF020008C91700081D
:1000A000BF020008BF020008BF020008BF0200082C
:1000B000BF020008BF020008BF020008BF0200081C
:1000C000BF020008BF020008BF020008BF0200080C
:1000D000BF02000891930008B5930008BF02000812
:1000E000BF170008BF020008BF020008BF020008D7
:1000F000BF020008BF020008BF020008BF020008DC
:10010000BF020008BF020008BF020008BF020008CB
:10011000BF020008BF020008BF0200081D870008D8
:10012000BF020008BF020008BF020008BF020008AB
:10013000BF020008BF020008BF020008BF0200089B
:10014000BF020008BF020008BF020008BF0200088B
:10015000BF020008B1160008BF020008BF02000875
:10016000BF020008BF020008BF020008BF0200086B
:10017000BF020008BF020008BF0200080000000024
:10018000BF020008BF020008BF020008BF0200084B
:10019000BF020008BF020008BF020008BF0200083B
:1001A000BF020008BF020008BF020008DFF810D03D
:1001B00000F02AFD00480047455D0208AFF30080CB
:1001C00048BB01202C4B1968086800F05AB880F32E
:1001D0000988BFF36F8F4FF0000080F311887047DC
:1001E0000000000008480068006880F308884FF0AD
:1001F000000080F3148862B661B6BFF34F8FBFF37F
:100200006F8F00DF00BF00BF08ED00E0DFF80C00DB
:10021000016841F470010160704700BF88ED00E0A3
:10022000EFF30980BFF36F8F134B1A681EF0100FA6
:1002300008BF20ED108A20E9F04F106009B44FF09C
:10024000500080F31188BFF34F8FBFF36F8F30F0F2
:1002500017FD4FF0000080F3118809BC1968086889
:1002600000F014B81EF0100F08BF00F014B880F3AF
:100270000988BFF36F8F7047AC090020EFF305804A
:10028000704730C8B0E8C04FFFF7A1BF30C8B0E832
:10029000C04FFFF7E7BFB0EC088AB0EC08CAFFF721
:1002A000E6BF00000648804706480047FEE7FEE735
:1002B000FEE7FEE7FEE7FEE7FEE7FEE7FEE7FEE716
:1002C0000D870008AD0100082DE9F05F054600200C
:1002D00092469B4688460646814640241BE02846B7
:1002E00041464746224600F04FFB53465A46C01A45
:1002F000914110D311461846224600F036FB2D1AC4
:1003000067EB01084F4622460120002100F02DFB3B
:1003100017EB00094E41201EA4F10104DFDC484622
:1003200031462A46434600F000B830BCBDE8C09FC5
:100330000649074A0868504343F2390210440860EE
:10034000400870470149086070470000700A0020AB
:100350006D4EC64140EA01039B0703D009E008C97E
:10036000121F08C0042AFAD203E011F8013B00F87A
:10037000013B521EF9D27047D2B201E000F8012BC6
:10038000491EFBD270470022F6E710B513460A4615
:1003900004461946FFF7F0FF204610BD421C10F836
:1003A000011B0029FBD1801A704710B5002200E024
:1003B000521C835C8C5CA34201D1002BF8D1D8B2D3
:1003C000E1B2401A10BD30B504460020034600E0FB
:1003D0005B1C934203D2E05CCD5C401BF8D030BD87
:1003E000034611F8012B00F8012B002AF9D1184619
:1003F000704700000FB400B58DB010A909900B90A4
:1004000000914FF0FF300A9000200C9005480690B4
:10041000054807906A4609A80F9900F0EBFA0DB05D
:100420005DF814FB110A00082F0A00082DE9FF5F90
:100430001D464FF0FF3BD5E9014691465F464FF020
:100440000008A9697F1C01988847296A8246884765
:100450000028F6D1BAF1FF3F0CD024F4C064002E7E
:1004600019DD600614D5BAF12B0F09D0BAF12D0FA2
:100470000ED103E0584604B000F07EB844F4806426
:10048000A9697F1C01988847761E8246002E02DDEE
:10049000BAF1300F03D0B9F1000F26D032E0A969CC
:1004A000761E44F400747F1C019888478246002E13
:1004B00005DDBAF1780F06D0BAF1580F03D0B9F1C3
:1004C000000F10D01EE0B9F1000F02D0B9F1100FEB
:1004D00018D1A969761E24F400747F1C01988847FE
:1004E0008246102002E0082000E00A20814609E050
:1004F00008FB0908A969761E44F400747F1C019862
:1005000088478246002E05DD4946504600F05EFAD7
:100510000028EDDAE96901988847A00502D46FF058
:100520000100A8E7E00725D1600613D5600502D5D4
:10053000C8F1000000E0404629680A1D2A600968E9
:10054000220501D5087015E0220701D5088011E0C9
:1005500008600FE02868011D29600068210502D5A8
:1005600080F8008006E0210702D5A0F8008001E0B5
:10057000C0F8008038467EE730BCBDE8C09F2DE95A
:10058000FE4F804681EA0300C00F0C46009021F028
:10059000004123F00045B8EB0200A94105D24046D6
:1005A000214690461C460B46024623F0004010436D
:1005B00047D0270DC7F30A00C3F30A510290401A2F
:1005C000019040286BDAC3F3130040F4801B0098BD
:1005D000924620B10023D2EB030A63EB0B0B019888
:1005E0005946C0F14002504600F0BFF906460D469C
:1005F00050465946019A00F0D7F910EB08006141C6
:10060000002487EA115284EAE7731A4340D0009A23
:1006100062B3019A012A4FEA075215DC001B61EB15
:1006200002014FF0004202EA0752CDE90042001CED
:1006300041F5801132462B4600F050FA03B000F02D
:1006400045B840462146F9E7001B61EB0201001C5A
:1006500041F5801300185B412018A2F5001747EB05
:10066000030140EAD570B6196D4111E06D084FEAFB
:10067000360645EAC0754FEA0752001B61EB0201DE
:10068000001C41F5801149084FEA30000019514122
:1006900032462B4603B000F01CB800F010BA0098A8
:1006A000012240000023D0EB020263EBE0730098CC
:1006B00021464FEAE074B8EB000061EB0401E9E782
:1006C00083F000435BE781F0004158E730BCBDE8B0
:1006D000C08F30BCBDE8C04FFFF7DFBF2DE9FE4F34
:1006E00081EA030404F0004421F0004100944FF03B
:1006F000000B23F0004350EA01045ED052EA0304E9
:100700005BD0C3F30A54C1F30A552C44A4F2F3346A
:100710000194A0FB0254C1F3130141F48011C3F30F
:10072000130343F4801301FB024400FB034E840ACD
:10073000970A44EA815447EA8357A4FB0768029565
:100740008D0A05FB07854FEA932C04FB0C54270503
:10075000029D4FEA065847EA1637B5EB08056EEBDF
:10076000070C870E920E47EA811742EA8312A7FB15
:100770000201B6EB0B0164EB00042B0D43EA0C33D2
:100780005E1844EB1C50DA465146E7FB0201C5F304
:1007900013044FEA0B3343EA14534FEA0432019C2B
:1007A00043EA0603A4F10C040294009CCDE900B4D2
:1007B00000F094F903B000F003B800200146F9E717
:1007C00030BCBDE8C08F2DE9F04D81EA030404F090
:1007D000004B21F0004514464FF0000A23F0004181
:1007E00050EA050220D054EA01021DD0C5F30A5791
:1007F0000246C5F31303C1F31300C1F30A5640F4D4
:10080000801543F48013A7EB0608101BD64608F2A8
:10081000FD3873EB050002D308F1010801E09218DE
:100820005B41B8F1000F03DA00200146BDE8F08D0E
:1008300000204FF48011064684460EE0171B73EB30
:10084000050705D3121B63EB050306434CEA010CB5
:1008500049084FEA300092185B4150EA0107EDD198
:1008600052EA030012D082EA040083EA0501084339
:1008700005D0101BAB4106D20122002306E0002266
:100880004FF0004302E06FF0010253101AEB060034
:100890004CEB085110EB0A0041EB0B01BDE8F04DA9
:1008A00000F00DB90EB5C10F80EAE0700844CA0728
:1008B000002140F233438DE80E000A460B4600F05B
:1008C0000DF903B000BD0EB540F233410291002195
:1008D000CDE900110A460B4600F000F903B000BD57
:1008E00000F0004230F000400AD0C10D01F5607107
:1008F000C0F3160042EA0151C20840071143704795
:1009000000200146704701F0004330B421F000415F
:1009100050EA010206D00A0DA2F56072C1F313017C
:10092000002A02DC30BC00207047440F44EAC104B6
:10093000C100E01830BC00EBC25000F089B830B5FF
:100940000B46014600202022012409E021FA02F58D
:100950009D4205D303FA02F5491B04FA02F5284427
:10096000151EA2F10102F1DC30BD202A04DB203A81
:1009700000FA02F1002070479140C2F1200320FAF2
:1009800003F3194390407047202A04DB203A21FAF0
:1009900002F00021704721FA02F3D040C2F1200298
:1009A0009140084319467047202A06DBCB17203AAE
:1009B00041FA02F043EAE07306E041FA02F3D04064
:1009C000C2F1200291400843194670473A2800D2EC
:1009D000303820F02002412A01D3A2F137008842AA
:1009E00001D34FF0FF307047026811441378016063
:1009F00018467047D16004495161044911620021D1
:100A00001161114600F018B9E90900082D0C000821
:100A1000426842B1016811F8013B23B1521EC0E99E
:100A20000012184670470121C160881E7047426855
:100A30005AB1C368016843B983688B4205D0491E27
:100A4000521CC0E90012002070474FF0FF30704781
:100A50000029A8BF7047401C490008BF20F00100D2
:100A6000704710B4B0FA80FC00FA0CF050EA0104B0
:100A700004BF10BC704749B1CCF1200421FA04F442
:100A800011FA0CF118BF012121430843A3EB0C011B
:100A9000CB1D4FEA00614FEA102042BF002010BC7E
:100AA000704700EBC35010440029A4BF10BC70472E
:100AB000401C490008BF20F0010010BC704710B571
:100AC000141E73F1000408DA401C41F10001921871
:100AD0005B411A4301D120F0010010BD2DE9F04D1A
:100AE00092469B4611B1B1FA81F202E0B0FA80F26F
:100AF00020329046FFF739FF04460F4640EA0A00CD
:100B000041EA0B0153465A46084313D0114653EAB3
:100B1000010019D0C8F140025046FFF735FF0546E5
:100B20000E46504659464246FFF71FFF084305D080
:100B3000012004E020463946BDE8F08D0020054341
:100B400046EAE0762C4337430A986305E40AA0EBB3
:100B500008000022FD0A44EA47540A3002D500206A
:100B60000146E9E7010510196941DDE90845001969
:100B70006941BDE8F04DA2E7C1F30A52C1F3130188
:100B800040F2FF3341F480119A4202DA002001461C
:100B9000704740F233439A42A2F2334202DC52429F
:100BA000FFF7F2BEFFF7E1BE30B5041E71F100049D
:100BB00004DB4FF00044404264EB0101141E73F16A
:100BC000000405DB1C464FF00043524263EB040374
:100BD0008B4208BF824230BD30B5041E71F1000463
:100BE00004DB4FF00044404264EB0101141E73F13A
:100BF000000405DB1C464FF00043524263EB040344
:100C0000994208BF904230BD064C074D06E0E068AF
:100C100040F0010394E8070098471034AC42F6D343
:100C2000FFF7C8FA88960508A8960508C0B24FF4E1
:100C3000F05100F0EDB900002DE9F34F8BB04FF00B
:100C4000000801F10C000C464FF0010B46460DF177
:100C5000080A01906269012101989047051E2DD074
:100C6000252D2CD0216A8847C0B1626901210198E5
:100C70009047216A88470028F7D1411E6269019890
:100C8000904700E0761CA1690B988847216A884745
:100C90000028F7D1E1690B988847DBE7A1690B9839
:100CA00088470746A84201D1761CD3E7E1690B9833
:100CB00088477F1C02D1B8F1000F6FD047E10027B1
:100CC00062693D463946019890472A2804D16269F5
:100CD0000121019890470125DFF88892626901217E
:100CE00001989047A0F130010A290AD24F45E5DC6E
:100CF00007EB870100EB4107303FDFD445F01005DB
:100D0000ECE7E90601D46FF000476C280AD04C28C4
:100D100014D0682815D06A280DD074281CD07A28E1
:100D20001AD01DE062690121019890476C2802D019
:100D300045F0040514E045F002050DE045F02005FE
:100D40000AE06269012101989047682802D045F0C5
:100D5000080505E045F400656269012101989047A6
:100D6000C4E9015765283DD019DC58287AD00CDC3D
:100D7000452837D004DC252826D0412831D131E060
:100D800046282FD047282CD12CE05B2877D061282B
:100D900028D063287CD0642823D15AE0D1E06F2882
:100DA00048D008DC66281DD067281BD0692821D0D0
:100DB0006E2816D127E0702845D0732868D0752892
:100DC00047D078280DD14DE0A1690B98884705469A
:100DD00025283FF469AFE1690B9888476D1C3FF403
:100DE0006AAFB4E023466A466FF001000B99AFF397
:100DF00000809FE045F040006060A80723464FF068
:100E0000000236D43EE0E8077FF447AF2068011DBA
:100E100021600068290501D506701BE7290701D567
:100E2000068017E7A90703D5F117C0E9006111E7AC
:100E300006600FE745F040006060A80723464FF0CA
:100E4000080216D41EE040F60E0125EA010060609B
:100E500016E045F040006060A80723464FF00A0204
:100E600007D40FE045F040006060A80708D523468E
:100E700010226FF001000B99AFF300805AE007E0F9
:100E8000234610226FF001000B99FFF7CFFA51E0D3
:100E90004FF000094F464B46632802D05B2807D02D
:100EA00041E02079C00601D40120A06001273AE08A
:100EB00062690121019890475E2805D14FF0010930
:100EC0006269494601989047216939B900210A466B
:100ED000534643F82120491C0829FADBB0B32169A5
:100EE00069B9C11700EBD16253110AEB830122F0FB
:100EF0001F02821A01200B68904003430B60626955
:100F00000121019890475D28E8D1B9F1000F09D07F
:100F10000020514651F82020D24341F82020401CA7
:100F20000828F7DB02AB224600976FF001000B990F
:100F3000AFF3008000280CDA401C08D1BBF1000F91
:100F400005D04FF0FF300DB000F00EB8FFE740467F
:100F5000F9E7E90701D108F1010806444FF0000B59
:100F600078E60000CCCCCC0C30BCBDE8C08F2DE9BD
:100F7000F04D00231A461B1A8A4103DB002001466C
:100F8000BDE8F08DC1F30A52C1F3130141F480159D
:100F90004FF0000BD10702D100186D41521E0027FF
:100FA000044640F2FF11384601EB620A3E46804695
:100FB000024600204FF48011FFF7E6FCC219714190
:100FC000BB1846EB0100B4EB030C75EB000C04D32B
:100FD000E41A65EB000517460E46241908F10100D6
:100FE0006D4180463428E3DDF91946EB0600091B04
:100FF000A84103D24FF0FF32134601E0002213460E
:101000001BEB070046EB0A51BDE8F04DFFF757BD5B
:101010007F2801D9002208E0064A02EB5002C007EF
:10102000127800D1120902F00F020120904008400E
:1010300070470000F88F050870B58C1810F8015B38
:1010400015F0070301D110F8013B2A1106D110F861
:10105000012B03E010F8016B01F8016B5B1EF9D165
:101060002B0705D40023521E0DD401F8013BFAE7EB
:1010700010F8013BCB1A921C03E013F8015B01F856
:10108000015B521EF9D5A142D8D3002070BD0000EB
:101090002DE9F041044600270D46006805F0B8F937
:1010A0000646206805F0B0F930435DD02068C1687D
:1010B0002E4E890105D5617E012902D1217E0129AB
:1010C0000BD0022D1DD0206805F0A2F9B8B1206820
:1010D0008168C1F3400169B111E00125244902E0B2
:1010E0008F4232D27F1C0268D2435206F8D440218C
:1010F0000160E8E78168314041F010018160012D15
:1011000011D0206805F080F948B120688168C1F3EA
:10111000400121B98168314041F020018160022DF8
:1011200008D0032D04D0042501F092FC064617E0F8
:101130000C25F9E70825F7E701F08AFC801B052854
:101140000ED92068806828420AD0A06D40F01000B7
:10115000A065E06D40F00100E0650120BDE8F08190
:10116000206880682842E7D10020F7E7C0FFFF7FB2
:10117000000040A370B50446006881688268C1F32E
:10118000400112F0010F28D039BB816801F00D0138
:10119000012914D18168124A1140891C816021689B
:1011A0000320086001F054FC054612E001F050FCF9
:1011B000401B02280DD920688068C00709D0A06DA7
:1011C00040F01000A065E06D40F00100E0650120F6
:1011D00070BD20688068C007E8D1002070BD0000A5
:1011E000C0FFFF7FF8B504460020009020688168AA
:1011F00011F0010F41D18168214A11422ED181683D
:10120000D5432940491C81601E48806800F0E07089
:1012100000020DD51C481D490068B0FBF1F0401CD0
:1012200000EB4000800000E0401E00900028FBD151
:1012300001F00EFC06461BE0816811F0010F03D19E
:1012400081682940491C816001F002FC801B022852
:101250000ED920680068C043C00709D0A06D40F0D7
:101260001000A065E06D40F00100E0650120F8BDD0
:1012700020680168C943C907DED10020F8BD00001D
:101280003F0000800003045000080020400D0300D0
:101290001FB50020214E224D8DF808008DF80C005E
:1012A0000090019000231A4603A9306826F078F9CF
:1012B00030BB9DF80C00012804D0022811D003286F
:1012C00026D11EE00123002202A9286826F0C6F9D3
:1012D00001A9684625F044FADDE900010BF07CFC29
:1012E00016E00123002202A9286826F0B7F900249D
:1012F00001200BF0AFFC0BF087FC641C052CF7DB26
:1013000006E0002400200BF0A5FC641C052CF9DB92
:101310004FF47A7026F008F9C4E700006802002054
:101320005C0200200F4810B501680024B9B1491EC5
:10133000016014D10C48816D21F400018165802188
:101340004FF0904001F06EF94FF40071074801F042
:1013500069F9074801F0D6FB08B16FF00704204691
:1013600010BD0000140200200010024000080048D8
:101370008839002070B510490E48002408600F48D5
:101380000168491C0160012912D10B4801F0D5FB0D
:1013900070B9094804F0F4F8074805F01FFC6FF035
:1013A000070520B90021044801F058FB00B12C4684
:1013B000204670BD005C00408839002014020020E7
:1013C00010B50A46014600244FF48053034801F04B
:1013D00013FC00B1E41E204610BD00008839002037
:1013E0003EB54FF480558DE82C000A460146002496
:1013F0000223084801F096FC48B1064801F09BFB27
:10140000042802D06FF0650401E06FF00304204669
:101410003EBD0000883900203EB54FF480558DE870
:101420002C000A46014600240223074801F030FD43
:1014300028B1054801F07FFB042802D0241F204674
:101440003EBD6FF06504FAE78839002070B50025CD
:101450002C46154800F072FE0521134800F0F0FDFF
:10146000114800F0BAFC05440F4800F0E1FE0120ED
:101470000DF060F8641CE4B2082CEAD3E8084000E0
:10148000FFF721FA9FED091B53EC112BFFF726F90B
:101490009FED081B53EC112BFFF720F9FFF733FAF0
:1014A00000EE100A70BD00004032002066666666DD
:1014B00066660A40000000000000303FFEE70000C2
:1014C00030B587B014216846FEF75DFF0F48C16C48
:1014D00041F00201C164C06C4FF4005400F00200FE
:1014E00005900120CDE9004002900220084D0390B4
:1014F0006946284601F076F900222146284601F087
:10150000A1FA044804F01AFA07B030BD00100240F6
:10151000000400485C010020022000F025B8000013
:101520001CB50020019001A800900423032215217E
:101530000C4804F035FA9DF804109DF8050001F000
:101540000F0140EA01210748083801609DF80710A3
:101550009DF806200C3102F00F0241EA02214160A1
:101560001CBD00005C01002008B500218DF80010B2
:1015700002466B461521034804F056FA9DF8000018
:1015800008BD00005C0100201CB5FFF799FF00F0CA
:1015900025F8A720FFF7E8FF06A1CDE900105823A2
:1015A000074A08A1012000F0A1F8BDE81C4000F0A6
:1015B00015B800004368697049443A25640A000080
:1015C000264F03082E2E5C4273705C5372635C627C
:1015D00073705F746F7563682E63000070B50A4D99
:1015E0004FF4005400222146284601F02BFA0A202D
:1015F00000F0F6FF01222146284601F023FABDE85B
:101600007040642000F0ECBF0004004810B50C46A8
:1016100003464979601E085C2B2806D02D280ED081
:101620002A2816D02F281ED026E0187D03EB800034
:1016300010ED020A50ED010A70EE200A1CE0187D40
:1016400003EB800010ED020A50ED010A70EE600A13
:1016500012E0187D03EB800010ED020A50ED010A44
:1016600060EE200A08E0187D03EB800010ED020A0E
:1016700010ED011AC0EE010A184606F007F81846E8
:1016800006F004F8B0EE600A184606F00FF820469F
:10169000BDE8104006F0C8BF014800F0ABBE000036
:1016A00054330020014800F0A5BE0000403900205E
:1016B000014800F09FBE0000F838002030B590F8D7
:1016C000444004F01C050124AC40056C6C600468C7
:1016D00063608368102B036803D099600068C26060
:1016E00030BD9A600068C16030BD7047F0B5ADF2A2
:1016F0000C4D1C4615460E460746012814DB0DF21C
:1017000024434FF4806102A8DDF8202407F052FF43
:10171000384600F019F8014602A8CDE900402B46F2
:10172000324603A007F022FF0DF20C4DF0BD000081
:101730005B25735D205B25732025732025645D3A4E
:101740000D0A25730D0A00000E4938B10022012848
:1017500006D0022806D0032812D10AE00AA009E028
:101760000CA000E00EA003680B60406848600A729D
:1017700006E00EA002680A6042684A60008908819B
:1017800000487047303200204C4F475F4445425577
:10179000470000004C4F475F494E464F0000000095
:1017A0004C4F475F5741524E000000004C4F475F7F
:1017B0004552524F52000000012001F007B84FF48B
:1017C000805001F003B80000014800F015BF000090
:1017D000480A002072B6FEE72DE9F0411A4F0025B5
:1017E00007F124003D803C4687F8745014210646DA
:1017F000FEF7C9FD15A0606314A0A06413A0E06506
:1018000013A020670020A41C002104EBC00200BF2D
:1018100022F81150491CC9B20429F9D3401CC0B2A6
:101820000428F1D320460BF0F9F820460BF0F6F827
:10183000B91C30462EF0A0FE064831468068BDE84F
:10184000F04117F07DBA0000683A00200A0000005D
:1018500000000000F4030020054900200A5C0AB1E2
:1018600000207047401C80B21028F7D30120704739
:10187000E03A002010B500200F4A01461154401CE8
:10188000C0B21128FAD300201318401CC0B283F84C
:1018900064101028F8D3FF2002F8740F1021507044
:1018A0000822054815F03CFE0349BDE8104001F14F
:1018B00014002EF03DBE0000E03A00202DE9F04774
:1018C000044690F854009AB00E464FF000090128E3
:1018D00016D0012084F85400002516951795324F34
:1018E0002068B84210D1DFF8C480CDF800804046AF
:1018F00004F092FD8246206804F08EFD60B10EE097
:1019000002201AB0BDE8F087A06D40F02000A0656D
:1019100084F854500120F4E7BAF1000F0AD0A06D0A
:1019200040F02000A0654FF0010900BF84F854503A
:101930004846E6E71E4831681E4A0029816840F69D
:101940001F7321F460411CD094F830C041EA4C313F
:10195000D6F804C041EA0C018160B968D8F8087073
:1019600001F0010107F001079268394302F001021A
:101970001143DBD1B2683168114382689A43114345
:101980000FE08160B968D8F8086001F0010106F045
:1019900001069268314302F001021143C6D1816809
:1019A00099438160C2E70000000004500001045028
:1019B00000030450000204502DE9F84F00270446AC
:1019C000009790F85400DFF8DC930D46B8460128E4
:1019D00011D0012684F85460206804F019FD60B12C
:1019E000A06D40F02000A0655FF0010784F85480EE
:1019F000384600F0EFB90220FBE768680C230528A1
:101A000012D8022807D0032807D0042807D00528B9
:101A100007D0062007E06B6006E0122003E01820E4
:101A200001E04FF480706860D5E90021206803EA86
:101A300091131844036B01F01F014FF01F0C0CFAB7
:101A400001FCC2F3846223EA0C038A40134303635C
:101A5000206804F0DDFC8246206804F0D5FC5AEAD8
:101A6000000025D1AA6829682068B2F1004F20D073
:101A700004F0DEFC2068416921F0004141612068EA
:101A80006969C268C2F3C102520091402A69042AFE
:101A900017D000EB82002B68026EDFF80CC303F056
:101AA000F84302EA0C020B431A4342F0004101667C
:101AB0007AE0002204F0BCFC2068416941F000415A
:101AC000DCE7002104F09AFC400320684FF000019D
:101AD00072D004F093FC90FAA0F0B0FA80F128687C
:101AE00042036ED090FAA0F0B0FA80F0814204D1A7
:101AF00000221146206804F0AAFC0121206804F0AD
:101B00007DFC400320684FF001015DD004F076FCBD
:101B100090FAA0F0B0FA80F12868420359D090FA08
:101B2000A0F0B0FA80F0814204D1002201212068A7
:101B300004F08DFC0221206804F060FC4003206862
:101B40004FF0020148D004F059FC90FAA0F0B0FA2E
:101B500080F12868420344D090FAA0F0B0FA80F0F7
:101B6000814204D100220221206804F070FC03218C
:101B7000206804F043FC400320684FF0030133D099
:101B800004F03CFC90FAA0F0B0FA80F1286842031F
:101B90002FD090FAA0F0B0FA80F0814204D1002258
:101BA0000321206804F053FC2068816811F0010FC4
:101BB00022D0ACE000E004E004F020FCC0F384613B
:101BC0008DE7C0F3846091E704F018FCC0F38461F2
:101BD000A2E7C0F38460A6E704F010FCC0F38461C0
:101BE000B7E7C0F38460BBE704F008FCC0F384618E
:101BF000CCE7C0F38460D0E72A7B296850F8B03F77
:101C0000C1F3120C23EA0C0302F0180C674A22FA03
:101C10000CF20A4013430360E968494577D128680C
:101C200041031CD090FAA0F1B1FA81F1491C01F0F6
:101C30001F0109294FEA403132D8002912D000BFD4
:101C400090FAA0F1B1FA81F101F1010101F01F0157
:101C500006FA01F609D100BFC0F3846109E0C0F3C0
:101C60008461E3E7C0F38461EEE790FAA0F1B1FA92
:101C700081F101F1010101F01F0146EA816102D108
:101C8000C0F3846003E090FAA0F0B0FA80F000F1B5
:101C9000010000F01F0000EB400041EA005132E07B
:101CA00000290ED090FAA0F1B1FA81F101F1010101
:101CB00001F01F0106FA01F606D100BFC0F38461EE
:101CC00006E0C0F38461F1E790FAA0F1B1FA81F186
:101CD00001F1010101F01F0146EA816102D1C0F367
:101CE000846003E090FAA0F0B0FA80F000F1010007
:101CF00000F01F002E4A00EB400002EB005041EACA
:101D0000000141F00071AA68206804F091FB2948A5
:101D10002A6802423FF46AAE27488168274E284B62
:101D2000284D01F0E071B2421DD10E021BD4226891
:101D30009A4202D0AA427FF459AE826841F400016F
:101D400022F0E0720A4382601F4820490068B0FB1D
:101D5000F1F0401C00EB4000800000E0401E0090CD
:101D60000028FBD142E61A4EB24209D1CE0107D477
:101D700022689A4201D0AA42F4D141F080710AE06F
:101D80006FF00045EA42EDD14A02EBD422689A4254
:101D9000E8D141F48001826822F0E0720A43826057
:101DA00024E6000000007F4000F0FF03FFFF070073
:101DB000000020FE0000088000030450000052C70D
:101DC000000004500002045000080020400D0300F1
:101DD000000084CB18BCBDE8E08F0068006C704741
:101DE000F8B54FF0000504002E46009502D0A06D16
:101DF00010B107E00120F8BD204600F0D9F8E665F3
:101E000084F8546020688168C1F3407119B1816819
:101E10005D4A1140816020688168C1F3007189B911
:101E200081685A4A114041F08051816058485949AF
:101E30000068B0FBF1F04000801C00E0401E009004
:101E40000028FBD120688168C1F3007141B9A16D00
:101E500041F01001A165E16D41F00101E16501254D
:101E600004F0D6FAA16DC90600D430B1A06D40F0DF
:101E70001000A06501252846F8BDA06D20F48070F3
:101E800040F00200A0652068806810F0010F15D1B5
:101E900041488068414900F00100896801F0010172
:101EA00008433F49896801F00101084306D13D49D3
:101EB00060688A6822F47C1202438A60E168606B81
:101EC000627E0843A16841EA4231084394F8201039
:101ED00040EA0140012904D1A18C334A02EB41417F
:101EE0000843A16A29B101F47071E26A014342EA30
:101EF00001002168CA682D4B1A400243CA6020685D
:101F000004F086FA0646206804F07EFA304317D1C2
:101F1000207E94F83010800340EA4100E16C0843D1
:101F20002168CA6844F206039A430243CA6094F8DF
:101F3000380001280CD02068016921F001010161FD
:101F4000206901282068016B21F00F0111D013E0F6
:101F5000D4E90F010843D4E9111211430843216861
:101F60000A6940F2FC739A43104340F00100086193
:101F7000E6E7E269521E11430163A06D20F0020002
:101F800040F00100A06576E7C0FFFF5FC0FFFF7F64
:101F900000080020400D0300000004500001045020
:101FA00000020450000304500000FEFF07C0F0FFD1
:101FB00010B5AAB00446142123A8FEF7E4F98C2139
:101FC0006846FEF7E0F91C492068884231D14FF499
:101FD0008040009080031F9003240120CDE9014040
:101FE000082003900220049005900690C0050790F9
:101FF000684601F0F9F808B1FFF7ECFB0F48C16C37
:1020000041F40051C164C16C01F400512891C16CCC
:1020100041F00101C164C06C23A900F001002890C7
:102020001020CDE92304002025904FF0904000F0CF
:10203000D9FB2AB010BD000000000450001002407F
:102040002DE9F04104463A480F46816801F01F052A
:10205000616908290FD085B1052D0ED0092D0CD04E
:10206000806800F4604060B1A06D40F02000A06581
:102070000120BDE8F081082604E02068C068C007A0
:10208000F1E7042600F0E4FC804615E0781C13D04C
:1020900000F0DEFCA0EB0800B84200D867B9206869
:1020A0000068304208D1A06D40F00400A065002017
:1020B00084F854000320DCE7206800683042E5D053
:1020C000A06D40F40070A065206804F0A9F980B10B
:1020D000607E70B92068006800070AD5A06D20F402
:1020E0008070A065A06DC00403D4A06D40F0010015
:1020F000A065104A20681049904201D10B4600E0CB
:102100000346834210D07DB1052D0DD0092D0BD093
:10211000904200D00146C968082E07D0490401D476
:102120000C2101600020A4E7C168F5E70821F8E769
:102130000003045000010450000004502DE9F04158
:1021400004463748806800F01F05206804F060F9F5
:1021500018B102210846BDE8F08194F85400012826
:102160000CD0012084F854002046FFF73BF8010012
:102170004FF0000304D084F85430EBE70220EAE784
:10218000A06D40F60162904340F48070A065254A3E
:102190002068254E904201D1374600E0074687422D
:1021A00000D01DB9A76D27F48017A765A76DFF04A0
:1021B00004D5E76D27F00607E76500E0E3651C2717
:1021C000076084F854302068904201D1334600E023
:1021D0000346834215D0A5B1052D12D0092D10D08C
:1021E000A36D43F48013A365904200D13046C068CC
:1021F0008001AFD5A06D20F4005040F48050A06560
:10220000A8E7C268920105D5A26D22F4005242F4FB
:102210008052A2658268054B1A40121D826099E7C0
:10222000000304500001045000000450C0FFFF7F71
:1022300010B5044690F85400012808D0012084F815
:10224000540003212046FEF723FF10B10BE00220CB
:1022500010BD2046FEF78EFF28B9A16D21F48851EC
:1022600041F00101A165002184F8541010BDF0B5C2
:10227000044600201E23012601E05B1E05D303F067
:102280001F0706FA07F50D42F7D072B1082A0AD0E7
:10229000102A05D0182A01D1072B06D30120F0BD42
:1022A000082BFBD201E0102BF8D22368596121687A
:1022B0008B6823F0180313438B60F0BD10B5040046
:1022C00010D0607F20B900202077204600F030F841
:1022D00002206077207938B1D4E902122046FFF756
:1022E000C6FF48B1012010BD216810484861206830
:1022F000816821F0180181606079A0B120692168AE
:10230000086120688168626921F060011143816081
:1023100020688168A26921F0800111438160012059
:102320006077002010BD4FF0FF30E8E7B71DC10413
:1023300008B500680649884208D10648816C41F416
:1023400080518164806C00F48050009008BD0000D2
:10235000003002400010024010B590F82510002215
:10236000022905D00421C16380F82420012010BD7A
:1023700001680B6823F00E030B6001680B6823F003
:1023800001030B6090F84410046C01F01C03012160
:1023900001FA03F3636080F8251080F824201046CA
:1023A00010BD10B590F825100024022903D0042197
:1023B000C16301241AE001680A6822F00E020A6073
:1023C00001680A6822F001020A6090F84410036C68
:1023D00001F01C02012101FA02F25A6080F8251076
:1023E000002180F82410816B01B18847204610BD80
:1023F000C06B7047F0B4016C0C6801680D6890F810
:10240000442002F01C06042202FA06F3234211D0F3
:102410006B070FD50B689B0603D40B6823F00403EE
:102420000B6090F8441001F01C018A40016C4A6076
:10243000016B1DE0022303FA06F727424FF0000C60
:102440004FF0010218D0AF0716D50C68A40605D4CA
:102450000C6824F00A040C6080F8252090F84410E1
:1024600001F01C018B40016C4B6080F824C0C16AF4
:1024700000291AD0F0BC08470823B340234214D0E7
:102480002B0712D50B6823F00E030B6090F8441055
:10249000036C01F01C0102FA01F15960C26380F87B
:1024A000252080F824C0416BE2E7F0BC70470000B3
:1024B00070B568B12B4C036814212B4AA34209D292
:1024C0002A4C1C44B4FBF1F18900C0E910210BE057
:1024D000012070BD234C64421C44B4FBF1F189001F
:1024E0004164204908390164022180F825101C68E4
:1024F00047F6F0718C43D0E902152943D0E9045620
:102500003543294385692943C5692943056A294318
:10251000214319608168B1F5804F19D0036C0F21F8
:10252000934202D152F8A83F02E00E4AA03213684B
:1025300090F8444004F01C04A1408B43136090F8D1
:102540004430416803F01C0399401368194311603B
:102550000021C163012280F8252080F8241008465C
:1025600070BD00000804024000000240F8FFFDBFFB
:1025700070B5044690F82400002501280CD00120F5
:1025800084F8240094F825600020012E06D084F8F9
:1025900024000225284670BD022070BD022684F862
:1025A0002560E0632068066826F001060660204684
:1025B000FFF784F8206B00282068016802D041F002
:1025C0000E0106E021F0040101602068016841F07D
:1025D0000A0101602068016841F001010160D9E74A
:1025E00070B5054600F034FA4FEA000400F030FA06
:1025F000001BA842FAD370BD02680123C2F3004158
:1026000002F01F029340064A02EB41110A681A4287
:1026100004D00B604068002800D0004770470000DD
:10262000140401402DE9F84F00230126DFF840C1D2
:102630000F2796E006FA03F414EA01027ED023F095
:1026400003056544AA46D5F808909D074FEA157E14
:1026500007FA0EF505EA090B0095B0F1904F05D089
:10266000444DA84205D14FF0010828E04FF0000882
:1026700025E0414DA84202D14FF002081FE03F4D36
:10268000A84202D14FF0030819E03D4DA84202D103
:102690004FF0040813E03B4DA84202D14FF005086B
:1026A0000DE0394DA84202D14FF0060807E0374D42
:1026B000A84202D14FF0070801E04FF0080808FADD
:1026C0000EF8D84526D1DFF8C880D8F8009029EA5E
:1026D0000209C8F8009008F10408D8F8009029EA27
:1026E0000209C8F80090DFF8A88008F10C08D8F8B3
:1026F000009029EA0209C8F80090A8F10408D8F867
:1027000000509543C8F80050009ADAF808509543F5
:10271000CAF80850D0F800804FEA4309032202FAB1
:1027200009F248EA0208C0F80080DD0800EB8505E0
:10273000AA46D5F820804FEA437900E010E04FEA3E
:10274000D96907FA09F528EA0508CAF820808568DA
:10275000954385604568A5434560C4689443C4605B
:102760005B1C31FA03F27FF465AF00F013B8000090
:10277000000001400004004800080048000C004828
:10278000001000480014004800180048001C0048D1
:102790000004014018BCBDE8E08F000010B50446FD
:1027A000012809D10121064800F047F9054920B167
:1027B000002048800448046010BD4888401CF8E7A9
:1027C000000400486C01002014040140044910B5C5
:1027D0000A68024202D00860FFF7E0FF10BD000067
:1027E000140401402DE9F04FDFF820920023012668
:1027F0000325A9F1040B85B00F2709F1040AABF1F9
:10280000040EFBE006FA03FC12EA0C027ED00C79FF
:1028100004F00304012C01D0022C20D18468009420
:102820005C0005FA04F80494009C24EA080400946F
:10283000D1F80C80049C08FA04F8009C48EA0408CB
:10284000C0F80880446824EA0C0491F804C0CCF372
:10285000001C0CFA03FC4CEA040CC0F804C00C7910
:10286000E443A4070ED0C4684FEA430805FA08FC05
:1028700024EA0C04D1F808C00CFA08FC4CEA040C59
:10288000C0F80CC00C7904F00304022C15D1DC084C
:1028900000EB84040294246A4FEA437C4FEADC682C
:1028A00007FA08FC24EA0C04D1F810C00CFA08FC62
:1028B0004CEA040C029CC4F820C004684FEA4308A8
:1028C00005FA08FC24EA0C0491F804C00CF0030C8F
:1028D0000CFA08FC4CEA040CC0F800C04C6814F474
:1028E000403F13D04A4CD4F860C04CF0010CC4F8FF
:1028F00060C0246E23F0030C04F001040094454CE6
:1029000064440294A4684FEA837C00E075E04FEAD7
:102910001C7807FA08FC24EA0C04B0F1904F06D0AA
:10292000DFF8F4C0604505D14FF0010C2EE04FF008
:10293000000C2BE0DFF8E4C0604502D14FF0020C40
:1029400024E0DFF8DCC0604502D14FF0030C1DE04D
:10295000DFF8D0C0604502D14FF0040C16E0DFF87C
:10296000C8C0604502D14FF0050C0FE0DFF8BCC0D5
:10297000604502D14FF0060C08E0DFF8B4C06045B6
:1029800002D14FF0070C01E04FF0080C0CFA08FCE4
:102990004CEA040C029CC4F808C0D9F80040CC46AC
:1029A000D1F8048094435FEAC82800D51443CCF8DA
:1029B0000040DAF80040D446D1F8048094435FEA3E
:1029C000882800D51443CCF80040DBF80040DC46F2
:1029D000D1F8048094435FEA883800D51443CCF8DA
:1029E0000040DEF80040F446D1F8048094435FEAEA
:1029F000C83800D51443CCF800405B1C0A6832FA92
:102A000003F47FF4FFAE05B000F014B808040140F1
:102A10000010024000000140000400480008004887
:102A2000000C00480010004800140048001800483E
:102A3000001C004830BCBDE8C08F0069084000D0D1
:102A4000012070470AB181617047816270470000C0
:102A50000148806870470000F407002090F841208A
:102A6000202A24D190F84020012A20D0012280F889
:102A70004020242280F841200268136823F00103DB
:102A800013600268136823F48053136002681368AC
:102A90000B43136001680A6842F001020A602021BA
:102AA00080F84110002180F840100846704702204D
:102AB000704790F84120202A22D190F84020012A26
:102AC0001ED0012280F84020242280F84120026894
:102AD000136823F0010313600268136823F4706322
:102AE00043EA0121116001680A6842F001020A60AC
:102AF000202180F84110002180F8401008467047DE
:102B00000220704710B5040013D0242084F841003F
:102B10002068016821F001010160204600F067FA99
:102B20000020606484F8410044F8300FA0742074E1
:102B300010BD012010BD406C704790F841007047F7
:102B400070B5040004D094F84100002510B106E0EF
:102B5000012070BD84F84050204600F049FA24203E
:102B600084F841002068016821F00101016060687B
:102B7000216820F0706008612068816821F40041BC
:102B80008160E0680128A06807D040F40440216813
:102B90008860E068022803D006E040F40040F6E7D1
:102BA00021684FF40060486020684168114A114371
:102BB00041602068C16821F40041C160D4E904018A
:102BC0000843A16940EA01202168C860D4E90701EF
:102BD0000843216808602068016841F00101016034
:102BE0006564202084F84100256384F84250002069
:102BF00070BD0000008000022DE9FC47002604465D
:102C0000019690F841001F469246894620287ED1C1
:102C100020688069C043000479D594F840000128F9
:102C200075D0012084F84000242084F841006664B7
:102C30004FF02008E068012809D029F4544040F4FE
:102C4000205021684860FFF703FF05460DE0314939
:102C500049EA010030490840F3E7781C05D0FFF746
:102C6000F7FE401BB84219D8C7B121688869896945
:102C7000C0F34010C1F300110843EED02068806912
:102C80003B46C043C0064FF000024FF020012046F3
:102C9000009517D502F0D8FD68BB09E084F84180A3
:102CA00054F8440F40F0200044F80409267022E054
:102CB0002168C1F81C8084F8418084F840600020BD
:102CC00000F02CB802F0C0FDA8B921681020C8613E
:102CD0002168C1F81C800198504512D120684168D4
:102CE00041F4804141603B4600222021204600956E
:102CF00002F0AAFD10B10120E2E708E02168C1F866
:102D00001C800198401C0190504593D3C6E70220D7
:102D1000D6E7000000200002FF2300020CBCBDE843
:102D2000F08700002DE9FF4F83B00446DDE91087EE
:102D300090F84100DDF848909A469346202874D1D7
:102D40005FEA080014D09FB194F8400001286CD0CD
:102D5000012084F84000FFF77BFE06460122009028
:102D60001923D103204602F06FFD002871D103E042
:102D70004FF4007060646CE0222084F84100402031
:102D800084F8420000256564C4F824806785656383
:102D9000CDE9009653465A462046049902F0D8FCE5
:102DA00010B184F8405054E0618D3548FF274FF052
:102DB00080784FF0007AFF2904D927853A464346A8
:102DC000009005E0618D2185009094F828205346FD
:102DD0002046049902F020FD4B46002204212046A3
:102DE000009602F031FDA0BB2068406A616A08705D
:102DF000606A401C6062208D401E81B22185608D1A
:102E0000401E6085608DD8B1D1B94B46002280212B
:102E10002046009602F018FDD8B9608DFF2805D92C
:102E200027853A464346009506E026E0608D2085DA
:102E3000009594F8282053462046049902F0ECFCB3
:102E4000608D0028C8D132464946204602F028FD50
:102E500018B1012007B000F017B821682020C86120
:102E600021684A68074B1A404A6084F8410084F898
:102E7000425084F840500020ECE70220EAE70000CE
:102E80000024008000E800FE30BCBDE8C08F0000D8
:102E90002DE9FF4F83B00446DDE9108790F841002B
:102EA000DDF848909A469346202871D15FEA0800E1
:102EB00014D09FB194F84000012869D0012084F813
:102EC0004000FFF7C5FD0646012200901923D103FB
:102ED000204602F0B9FC00286ED103E04FF40070E8
:102EE000606469E0212084F84100402084F84200B9
:102EF00000256564C4F8248067856563CDE9009684
:102F000053465A462046049902F054FC10B184F806
:102F1000405051E0608DFF274FF080784FF0007AED
:102F2000FF2804D927853A464346009505E0608D81
:102F30002085009594F8282053462046049902F0F5
:102F40006BFC32464946204602F0D0FCA0BB606ACA
:102F5000216800788862606A401C6062608D401E53
:102F60006085208D401E80B22085618DD9B1D0B999
:102F70004B46002280212046009602F065FCD8B91D
:102F8000608DFF2805D927853A464346009506E01F
:102F900026E0608D2085009594F828205346204631
:102FA000049902F039FC608D0028CAD132464946A6
:102FB000204602F075FC18B1012007B000F014B8EB
:102FC00020682021C16120684268064B1A40426097
:102FD00084F8411084F8425084F840500020ECE717
:102FE0000220EAE700E800FE30BCBDE8C08F704771
:102FF0007047000002488168027811448160704780
:10300000F407002010B50024032000F09FF80F20E3
:1030100000F008F808B1012401E000F04FF8204664
:1030200010BD000030B505461F4887B0816D41F0E6
:1030300020018165806D06A900F02000009001A8A4
:1030400000F05AFB0498B0B100F076FB400017493D
:10305000174AB0FBF1F11748491E0260416040F287
:10306000E7320021C0E903218160816101F0A8FA03
:10307000040003D015E000F05FFBE8E70D4801F025
:10308000F1FA04000DD1372000F032F8102D07D2EC
:1030900000222946372000F039F80748056000E093
:1030A000012407B0204630BD0010024040420F000E
:1030B00000140040DC390020F80700200B4882B0E3
:1030C000016E41F001010166016E01F00101009104
:1030D000816D41F080518165806D002200F080504B
:1030E00000900F21901E02B000F010B800100240B6
:1030F000002809DB00F01F020121914040098000F7
:1031000000F1E020C0F8001170470000F0B40E4B51
:103110001B680C46C3F30223C3F10705042D00D935
:103120000425191D072901D2002300E0DB1E01261A
:1031300006FA05F1491E214099409E40761E164030
:103140003143F0BC06F07BBA0CED00E0064900F01C
:10315000070208684FF6FF03184040EA0220034ABE
:1031600010430860704700000CED00E00000FA0515
:103170001649B0F5007F0868C0F3412009D0022845
:1031800005D0086820F4C06040F48060086000202A
:1031900070470128FBD0086820F4C06040F400703C
:1031A00008600B483222006850430A4AB0FBF2F034
:1031B000401C00E0401E4A69520501D50028F9D1A3
:1031C00048694005E3D503207047000000700040C7
:1031D0000008002040420F000248006800F4C06070
:1031E00070470000007000402DE9F84F04460027AA
:1031F0000088EC4D3E46010504F1200B1DD5A06E64
:1032000078B1B0F5800F11D0B0F5000F04D0B0F553
:10321000400F22D001270FE0E86840F48030E860DA
:103220001BE00021201D04F025FC03E0002158468E
:1032300004F0B6FC070010D03E462088C00426D516
:10324000E06EC0B1B0F1807F1AD0B0F1007F0DD038
:10325000B0F1407F19D0012718E0D5F88800A16EA1
:1032600020F440000843C5F88800E6E7E86840F429
:103270008030E86009E00021201D04F0FBFB03E042
:103280000021584604F08CFC0746F7B13E46206802
:1032900080033AD5A86D4FF00008C00009D4A86D8E
:1032A00040F08050A865A86D4FF0010800F08050F4
:1032B0000090DFF8F4A2DAF8001041F48071CAF847
:1032C0000010FFF7C5FB814610E0D5F88800E16EDD
:1032D00020F040700843C5F88800D8E7FFF7B8FB36
:1032E000A0EB0900022801D9032705E0DAF8000065
:1032F000C005F3D5002F7CD04FEA0706B8F1000FC8
:1033000003D0A86D20F08050A8652078C00707D0B2
:10331000D5F88800A16B20F003000843C5F88800A9
:103320002078800707D5D5F88800E16B20F00C00E5
:103330000843C5F888002078400707D5D5F88800ED
:10334000216C20F030000843C5F888002078000781
:1033500007D5D5F88800616C20F0C0000843C5F897
:1033600088002078C00607D5D5F88800A16C20F425
:1033700040700843C5F888002078800607D5D5F846
:103380008800E16C20F440600843C5F8880020887C
:10339000800507D5D5F88800216E20F44020084329
:1033A000C5F888002088400507D5D5F88800616EEB
:1033B00020F440100843C5F888002078400607D55F
:1033C000D5F88800216D20F440500843C5F88800E6
:1033D0002078000607D5D5F88800616D20F44040BC
:1033E0000843C5F888002088C00509D5D5F88800AD
:1033F00000E027E0A16D20F440300843C5F88800C4
:103400002068C00207D5D5F89C00E16D20F00300CC
:103410000843C5F89C0020884FF0006780044FF0F7
:10342000806850D5D5F88800216F20F040600843AF
:10343000C5F88800206FB8423DD1E86840F480109C
:10344000E86040E0D5F8900010F4407015D0D4F852
:103450008810814211D0D5F89000D5F8901020F452
:10346000407041F48031C5F89010D5F8901021F4E7
:103470008031C5F89010C5F89000C00711D0FFF753
:10348000E7FA074641F2883907E000BFFFF7E0FAA4
:10349000C11B494501D9032630E7D5F890008007C4
:1034A000F4D5D5F89000D4F8881020F44070084383
:1034B000C5F8900022E7404505D10121201D04F008
:1034C000D9FA00B106462068000317D5D5F8880060
:1034D000616F20F040600843C5F88800606FB84213
:1034E00004D1E86840F48010E86007E0404505D169
:1034F0000121201D04F0BEFA00B1064620684003F9
:1035000017D5D5F88800A16F20F040600843C5F8B2
:103510008800A06FB84204D1E86840F48010E860E9
:1035200007E0404505D10121201D04F0A3FA00B1B8
:103530000646208840041AD5D5F88800E16F20F0AF
:1035400040500843C5F88800E06FB0F1805F03D0B9
:10355000B0F1005F05D00AE00221201D04F08AFAD4
:1035600003E00221584604F01BFB00B10646208808
:10357000000408D5D5F88800D4F8801020F08040E9
:103580000843C5F888002068C00307D555F8880FA0
:10359000D4F8841020F0004008432860304600F042
:1035A00005B80000001002400070004018BCBDE8E3
:1035B000E08F00002DE9F0470F4605006BD0494E23
:1035C000306800F00700B84209D2306820F00700E8
:1035D00038433060306800F00700B8425BD128788B
:1035E000414C80070AD5A868A16801F0F001884223
:1035F00004D9A16821F0F0010143A1602878C00737
:103600002CD06868032811D0022812D0216898B104
:10361000490500293FDAA16821F003010143A160B7
:10362000FFF716FA804641F2883910E021688901D7
:10363000EFE721688903ECE78907EAE7FFF708FA73
:10364000A0EB0801494502D90320BDE8F087A06836
:10365000696800F00C00B0EB810FEFD1287880078B
:103660000AD5A868A16801F0F001884204D2A168D7
:1036700021F0F0010143A160306800F00700B8427A
:103680000BD9306820F0070038433060306800F014
:103690000700B84201D00120D7E72878400705D5B8
:1036A000A068E96820F4E0600843A060287800077B
:1036B00006D5A068296920F4605040EAC100A060E6
:1036C00000F05EF8A168094AC1F30311515C01F0F2
:1036D0001F01C8400649086006480068BDE8F04779
:1036E000FFF7A0BC00200240001002405444040830
:1036F00000080020F80700200F2202600C4A93689F
:1037000003F003034360936803F0F003836093685E
:1037100003F4E063C36092684FF4E06303EAD2020B
:1037200002610448006800F007000860704700006C
:1037300000100240002002400548064900688968E0
:10374000054AC1F30221515C01F01F01C8407047D6
:10375000000800200010024094440408054806496F
:1037600000688968054AC1F3C221515C01F01F015C
:10377000C84070470008002000100240944404082C
:1037800070B52549002318468A68CC6812F00C02EF
:1037900004F00306214C4FEA640509D00C2A05D039
:1037A000042A32D0082A00D1284670BD012E10D13B
:1037B0000B681B0704D4D1F89430C3F3032302E051
:1037C0000B68C3F30313164E56F82330DAB10C2AF4
:1037D000EBD1C86800F00300022818D0032818D0E5
:1037E0001846CA68CB68C2F30212C3F306234343E8
:1037F000521CB3FBF2F2C868C0F34160401C4000A9
:10380000B2FBF0F070BD184670BD204670BD20467A
:10381000E7E72846E5E70000001002400024F40036
:10382000644404082DE9F84304006FD0FA4DA868F9
:1038300000F00C06E86800F003072078C00664D5A5
:1038400076B10C2E01D1012F0AD0A069002828687A
:103850007AD040F001002860FFF7FAF880465DE07A
:103860002868800702D5A0690028DED0216A286870
:10387000000703D5286800F0F00004E0D5F89400B4
:10388000F02202EA1010814216D9084604F00CFA20
:1038900000283BD1286840F0080028602868216A89
:1038A00020F0F000084328606868E16920F47F4058
:1038B00040EA0120686016E0286840F008002860AF
:1038C0002868216A20F0F000084328606868E169F0
:1038D00020F47F4040EA0120686026B9206A04F0A5
:1038E000E3F90028D5D1FFF74BFFA968CB4AC1F314
:1038F0000311515C01F01F01C840C9490860C94863
:103900000068FFF78FFB00287ED12EE0CAE000BFE1
:10391000FFF79EF8A0EB0800022876D828688007F9
:10392000F6D5286840F0080028602868216A20F051
:10393000F000084328606868E16920F47F4040EAAD
:103940000120686011E0FFE720F001002860FFF728
:103950007FF8804606E000BFFFF77AF8A0EB08008A
:103960000228DAD828688007F6D42078C00740D02B
:10397000082E18D00C2E01D1032F14D06068B0F59A
:10398000803F17D0B0F5A02F286817D020F48030E2
:103990002860286820F4802028606068E0B1FFF784
:1039A00057F8804614E02868800322D56068002814
:1039B00078D01EE0286840F48030EDE740F48020A5
:1039C0002860F7E7FFF744F8A0EB08006428A4D8C4
:1039D00028688003F6D50CE0FFF73AF8804605E04A
:1039E000FFF736F8A0EB0800642896D82868800313
:1039F000F6D4207880073BD5042E11D00C2E01D1AF
:103A0000022F0DD0E06801E0AEE1FFE00028286859
:103A10001ED040F480702860FFF71AF807460CE0CB
:103A2000286840050CD5E0680028C1D008E000BF38
:103A3000FFF70EF8C01B022893D828684005F7D579
:103A40006868217C20F0FE4040EA016068600FE079
:103A500020F480702860FEF7FBFF074605E000BFFA
:103A6000FEF7F6FFC01B0228B1D828684005F7D43E
:103A70002078000729D560690028D5F8940012D075
:103A800040F00100C5F89400FEF7E2FF074604E0AD
:103A9000FEF7DEFFC01B022899D8D5F894008007F6
:103AA000F6D512E02BE120F00100C5F89400FEF7F6
:103AB000CFFF074605E000BFFEF7CAFFC01B022884
:103AC00085D8D5F894008007F6D42078400766D5CD
:103AD000A86D0027C00008D4A86D40F08050A865EC
:103AE000A86D012700F0805000904F480168C9057B
:103AF00012D40168814641F480710160FEF7A8FF8D
:103B0000804605E0FEF7A4FFA0EB080002287DD860
:103B1000D9F80000C005F5D5A068012816D0052801
:103B2000D5F8900017D020F00100C5F89000D5F826
:103B3000900020F0040000BFC5F89000A06841F29A
:103B40008839C0B1FEF784FF80460FE0D5F89000B9
:103B500040F00100F0E740F00400C5F89000F5E700
:103B6000FEF776FFA0EB080149454FD8D5F8900045
:103B70008007F5D50EE0FEF76BFF804606E000BF3C
:103B8000FEF766FFA0EB080149453FD8D5F8900045
:103B90008007F5D41FB1A86D20F08050A86520786B
:103BA000800628D5606A0028D5F8980012D040F029
:103BB0000100C5F89800FEF74BFF074605E000BF7F
:103BC000FEF746FFC01B022820D8D5F898008007D2
:103BD000F6D510E020F00100C5F89800FEF738FF98
:103BE000074604E0FEF734FFC01B02280ED8D5F8C4
:103BF00098008007F6D4A06AF0B3022816D00C2EE5
:103C00007DD0286820F08070286000E0ABE0FEF7EF
:103C10001FFF0446AAE000000010024054440408BC
:103C200000080020F807002000700040E868E26A01
:103C300000F00301914228D1216B00F070020901CC
:103C40001039914221D1626B00F4FE41B1EB022F99
:103C50001BD194F8382000F07841B1EBC26F14D139
:103C6000A18F00F4C00249084905A1F50011914255
:103C70000BD194F8401000E06EE04908490600F0CE
:103C8000C060A1F1007181424FD00C2E77D028681E
:103C9000400174D42868C00071D4286820F0807076
:103CA0002860FEF7D5FE064605E000BFFEF7D0FE11
:103CB000801B022857D828688001F7D4F4E90B014B
:103CC0006FF00F0202EB01110843218A52044908E8
:103CD00002EB4151A26841EA02210843217D4FF0E5
:103CE0007E42490802EB41610843217B40EAC16002
:103CF000E968244A11400843E860286800E03EE093
:103D000040F080702860E86840F08070E860FEF75E
:103D10009FFE044605E000BFFEF79AFE001B022846
:103D200021D828688001F7D527E02868800124D4AD
:103D3000286840F080702860E86840F08070E86093
:103D4000FEF786FE044604E0FEF782FE001B022812
:103D500009D828688001F7D50FE000BFFEF778FE8C
:103D6000001B022802D90320BDE8F88328688001DF
:103D7000F4D4E86804490840E8600020F4E7012032
:103D8000F2E700008C809D01FCFFEEFE2DE9F05F64
:103D9000044690F8200093468A46012825D0012643
:103DA00084F82060022084F821002168CA2048623B
:103DB0002168532048622068816821F48061816015
:103DC0002068C16801F0800161F49061C1602068E1
:103DD000C0684FF0000740064FF0FF081AD4FEF706
:103DE00037FE05464FF47A7910E0022000F03CB827
:103DF000FEF72EFE401B484508D92168C1F82480F3
:103E0000032084F8210084F82070EFE72068C06860
:103E10004007EDD52168C1F814A02068816821F021
:103E2000070141EA0B0181600E48016841F48011ED
:103E300001600C480830016841F48011016020687D
:103E4000816841F4804181602068816841F480612B
:103E500081602168C1F8248084F8216084F8207092
:103E60000020C3E70004014030BCBDE8C09F70479C
:103E700010B50B4904464FF4801008602068C168F3
:103E8000490508D5C16801F0800161F49061C16005
:103E90002046FFF7ECFF012084F8210010BD000050
:103EA0001404014010B500680B4641680D480140FC
:103EB000080CD870C1F304245C7001F03F049C70BE
:103EC000C1F34231197052B903F02CFFD870587801
:103ED00003F028FF5870987803F024FF98700020B2
:103EE00010BD00003FFFFF0010B50B460168896A56
:103EF000596001680969C1F30E01996000680168A1
:103F00000D480140C1F305401870C1F306245C70F0
:103F100001F07F049C70890DD97052B903F002FF43
:103F20001870587803F0FEFE5870987803F0FAFE87
:103F30009870002010BD00007F7F7F0010B5040046
:103F40004FF0010044D094F8210028B9002084F8F3
:103F50002000204600F040F8022084F8210021686B
:103F6000CA204862216853204862204603F0F0FED0
:103F700000282DD120688168164A1140816021688F
:103F800088686268A369104322691A4310438860F5
:103F90002168E068086120680169228941EA0241DC
:103FA0000161204603F0F8FE002811D12168CA6C97
:103FB00022F00302CA646269E16911432268D36C8A
:103FC0001943D1642268FF215162012184F8211034
:103FD00010BD0000BFFF8FFF10B5A4B004468C21B8
:103FE0006846FCF7D0F90F492068884218D14FF491
:103FF00000300090001222906846FFF7F5F808B1F3
:10400000FDF7E8FB084850F8901F41F400410160BB
:10401000002205210320FFF779F80320FFF768F855
:1040200024B010BD002800400010024070B50446C6
:1040300090F820000B4601281BD0012684F8206050
:10404000022084F82100B2B19878D97840EA01457D
:1040500058781978000240EA413005432168CA20A7
:104060004862216853204862204603F071FED0B1B7
:1040700020E0022070BD5878C10603D500F0EF00A3
:104080000A305870D87803F056FE0504587803F0CB
:1040900052FE45EA0025987803F04DFE0543187856
:1040A00045EA4035DAE70848054020684560204683
:1040B00003F072FE2268FF21516208B984F8216082
:1040C000002184F8201070BD3FFFFF002DE9F04172
:1040D000044690F8200090460D46012811D0012793
:1040E00084F82070022084F821002168CA204862E8
:1040F000216853204862204603F02AFE002618B1AA
:1041000029E00220BDE8F0812068B8F1000F806846
:104110004FEA406024D0002800DBEE70A8782978B0
:10412000EA7840EA01406978090241EA825108438D
:1041300018490840216808602068816821F48021BE
:104140008160D5E90301084321688A6810438860CB
:10415000204603F021FE2268FF215162A0B115E044
:10416000002800DBEE70287803F0E5FD0304687892
:1041700003F0E1FD43EA0023A87803F0DCFD0343EC
:10418000E87843EA8050D3E784F8217084F820600F
:10419000B8E700007F7F7F0070B504460068C16803
:1041A00021F0A001C160FEF753FC05464FF47A767A
:1041B00007E000BFFEF74CFC401BB04201D90320D2
:1041C00070BD2068C0688006F4D5002070BD7047BF
:1041D00070B5040009D0606A002540B125616561B1
:1041E000A56294F85D0040B10CE0012070BD6068EC
:1041F000B0F5827FF4D0E561F2E784F85C502046A8
:1042000000F056F8022084F85D002068016821F073
:1042100040010160E1684FF4E062914201D9002061
:1042200001E04FF48050B1F5706F02D0914200D0A0
:10423000A562A188228901F4827102F4044211432B
:10424000227C02F002021143227D02F0010211439E
:10425000228B02F400721143227F02F038021143D4
:1042600094F8202002F080021143228D02F40052C3
:10427000114322681160A169042202EA114194F8F5
:10428000242000F4805002F01002114394F83420EE
:1042900002F008021143A28902F470621143014343
:1042A000206841602566012084F85D00002070BD13
:1042B0002DE9F04186B0064614216846FCF763F804
:1042C00026493068884246D12549086E40F480501E
:1042D0000866086E00F480500590C86C40F001003C
:1042E000C864C86C00F001000590C86C40F0020082
:1042F000C864C86C022400F002004FF00508009466
:10430000CDE9048001AA0025032782E8B0006946B0
:104310004FF09040FEF766FA20208DE8B101694623
:104320001048FEF75FFA114C0F48206001206060D2
:104330001020C4E9020580202061400060618000F7
:10434000C4E9060520462562FEF7B2F808B1FDF77C
:1043500041FA7465A66206B0BDE8F0810030014004
:104360000010024000040048300002405433002096
:104370002DE9F041044690F85C000026012809D0A0
:10438000012784F85C7094F85D000025012804D0B2
:10439000022670E00220BDE8F08199B192B10320BD
:1043A00084F85D002566A163A287E2872564256500
:1043B000E564A4F84450A4F84650A068B0F5004F56
:1043C00002D00BE0012656E02068016821F0400190
:1043D00001602068016841F480410160616D2848F6
:1043E0000863616D2748C862616D27484863606D46
:1043F00085632068416821F480414160E068B0F540
:10440000E06F10D8606D8069B0F5806F0BD1E08FE0
:10441000C0072068416816D041F480414160E08FB8
:1044200007EB5000E087E38F2268A16B0C32606DD0
:10443000FEF79EF868B1206E40F01000206601265D
:1044400084F85D7017E021F480414160E08F4008FE
:10445000E8E720680168490603D4016841F040019B
:1044600001602068416841F0200141602068416896
:1044700041F00201416084F85C5030468BE7000057
:10448000297F0008337F0008077F000870477047C6
:10449000704770477047000030B590F83C20012A03
:1044A0003AD0012280F83C20CA688B6822F440721E
:1044B0001A434B6822F480621A430B6822F40062AC
:1044C0001A430B6922F480521A434B6922F40052BA
:1044D0001A438B6A22F480421A430B8B22F4702217
:1044E00042EA03420D4D03680024AB4202D00C4D5A
:1044F000AB420CD18D8C22F4700242EA0552CD6998
:1045000022F080722A43096A22F000720A435A6438
:1045100080F83C40002030BD022030BD002C01401E
:1045200000340140F0B590F83C20012A39D0012434
:1045300080F83C40022280F83D200268536895686C
:10454000194E1A4FB24201D0BA4204D123F4700C72
:104550004B6843EA0C0323F0700C0B6843EA0C032E
:1045600053600268B24210D0B2F1804F0DD0104BB0
:104570009A420AD00F4B9A4207D00F4B9A4204D06E
:10458000BA4202D00D4B9A4204D1896825F08003CB
:104590001943916080F83D40002180F83C100846A6
:1045A000F0BD0220F0BD0000002C014000340140AD
:1045B0000004004000080040000C004000400140A2
:1045C00010B5040003D094F83D0010B107E00120BD
:1045D00010BD002084F83C00204600F023F80220A3
:1045E00084F83D00211D206804F09EF8012084F825
:1045F000480084F83E0084F83F0084F8400084F8C6
:10460000410084F8420084F8430084F8440084F8B0
:10461000450084F8460084F8470084F83D000020F7
:1046200010BD000008B50C4A01680C48914207D142
:10463000816D41F002018165806D00F0020009E0AA
:10464000074A914207D1016E41F400310166006EC4
:1046500000F40030009008BD00040040001002404B
:104660000044014090F83D10012901D0012070471D
:10467000022180F83D100168CA6842F00102CA6058
:1046800000681149884211D0B0F1804F0ED00F4917
:1046900088420BD00E49884208D00E49884205D086
:1046A0000D49884202D00D49884207D181680C4AE1
:1046B0001140062906D0B1F5803F03D0016841F0D2
:1046C0000101016000207047002C014000040040FF
:1046D00000080040000C0040003401400040014050
:1046E0000700010070B5044690F83C000025012841
:1046F00017D0012684F83C60022084F83D0022682F
:1047000090682F4B184020F47F4090600868502834
:1047100038D00DDC20284FD005DC90B3102811D103
:104720004AE0022070BD302846D040280AD13BE044
:1047300060282FD070280DD0B0F5805F03D0B0F581
:10474000005F12D0012584F83D60002084F83C0011
:10475000284670BDCB68D1E90121206804F051F8EA
:104760002068816841F0770109E0CB68D1E9012137
:10477000206804F046F82068816841F48041816037
:10478000E1E719E0CA684968206804F0D5F95021CA
:10479000206806E0CA684968206804F0DEF96021F4
:1047A000206804F038F8CEE7CA684968206804F049
:1047B000C3F940212068F4E7226801461046F0E77B
:1047C00088FFFEFF704770B50446006801694FF02E
:1047D0000005C943890715D4C168C943890711D4A5
:1047E000E91E01610120207720688069800720464A
:1047F00002D0FFF7E7FF04E000F0FCF8204600F0ED
:10480000CFF9257720680169C943490717D4C168E2
:10481000C943490713D46FF00401016102202077D6
:104820002068806910F4407F204602D0FFF7CAFF5D
:1048300004E000F0DFF8204600F0B2F925772068A8
:104840000169C943090716D4C168C943090712D4CD
:104850006FF008010161042020772068C06980079B
:10486000204602D0FFF7AEFF04E000F0C3F8204678
:1048700000F096F9257720680169C943C90617D465
:10488000C168C943C90613D46FF010010161082043
:1048900020772068C06910F4407F204602D0FFF7DF
:1048A00091FF04E000F0A6F8204600F079F92577A2
:1048B00020680169C943C90708D1C168C943C9074C
:1048C00004D1891E0161204600F044FA2068016984
:1048D000C943090609D4C168C943090605D46FF064
:1048E000800101612046FFF7D4FD20680169C943BA
:1048F000C90509D4C168C943090605D46FF480719C
:1049000001612046FFF7C4FD20680169C9434906DB
:1049100009D4C168C943490605D46FF0400101615B
:10492000204600F021FA20680169C94389060BD4AA
:10493000C168C943890607D46FF020010161204690
:10494000BDE87040FFF7A6BD70BD000030B587B070
:10495000044614216846FBF716FD24680021214A0D
:1049600002234FF09040B4F1804F17D01E4DAC425F
:1049700023D1D06C40F00400D064D06C00F004006F
:10498000059080200090CDE90131CDE9031317484F
:10499000694600BFFDF726FF07B030BDD46C44F078
:1049A0000104D464D26C02F001020592202200922C
:1049B000CDE901310391012110E00D4DAC42EBD165
:1049C000D46C44F00104D464D26C02F0010205926C
:1049D00040220092CDE9013103910E2104916946F4
:1049E000D8E7000000100240000400400008004822
:1049F00000440140704770B5044690F83C00002622
:104A00000D4601280BD0012084F83C000C2A4AD026
:104A100007DC82B1042A20D0082A06D131E0022026
:104A200070BD102A53D0142A63D00126002084F8C8
:104A30003C00304670BD206803F0F6FE20688169B6
:104A400041F0080181612068816921F004018161E0
:104A5000206881692A69114311E0206803F032FF60
:104A60002068816941F4006181612068816921F4D5
:104A700080618161206881692A6941EA022181613E
:104A8000D4E7206803F066FF2068C16941F008019F
:104A9000C1612068C16921F00401C1612068C16958
:104AA0002A69114311E0206803F09CFF2068C16966
:104AB00041F40061C1612068C16921F48061C16174
:104AC0002068C1692A6941EA0221C161AEE7206814
:104AD00003F0C2FF2068416D41F008014165206884
:104AE000416D21F0040141652068416D2A6911433F
:104AF00011E0206803F0E8FF2068416D41F4006197
:104B000041652068416D21F4806141652068416DF7
:104B10002A6941EA0221416588E710B5040003D003
:104B200094F83D0010B107E0012010BD002084F88A
:104B30003C00204600F022F8022084F83D00211DB0
:104B4000206803F0F1FD012084F8480084F83E005D
:104B500084F83F0084F8400084F8410084F8420063
:104B600084F8430084F8440084F8450084F8460043
:104B700084F8470084F83D00002010BD08B50068A7
:104B8000B0F1804F08D10548816D41F00101816588
:104B9000806D00F00100009008BD00000010024090
:104BA0007047000030B50446022269B1042912D0D2
:104BB000082917D00C291CD0102921D094F84300C3
:104BC000012824D0012030BD94F83E000128F9D1FD
:104BD00084F83E201DE094F83F000128F2D184F8CB
:104BE0003F2016E094F840000128EBD184F84020E3
:104BF0000FE094F841000128E4D184F8412008E056
:104C000094F842000128DDD184F8422001E084F8C4
:104C100043200122206803F0E7FD1A4A20681A4B5E
:104C20001A49904209D0984207D0884205D0184DC1
:104C3000A84202D0174DA84203D1456C45F4004567
:104C40004564206890420FD0B0F1804F0CD0124ADA
:104C5000904209D0114A904206D0114A904203D0A6
:104C6000984201D0884207D181680E4A1140062936
:104C700006D0B1F5803F03D0016841F00101016029
:104C8000002030BD002C01400034014000400140B4
:104C9000004401400048014000040040000800407A
:104CA000000C00400700010030B504460D460068C6
:104CB000002203F099FD224B41F2111120688A1065
:104CC00098420BD01F4B984208D01F4B984205D0FA
:104CD0001E4B984202D01E4B984209D1036A0B42E8
:104CE00006D1036A134203D1436C23F400434364A7
:104CF0002068036A0B4206D1016A114203D10168A0
:104D000021F00101016001205DB1042D0CD0082DBE
:104D10000DD00C2D0ED0102D0FD084F843000020A4
:104D200030BD84F83E00FAE784F83F00F7E784F8E6
:104D30004000F4E784F84100F1E784F84200EEE730
:104D4000002C01400034014000400140004401407B
:104D50000048014000680349884201D1FEF74AB982
:104D6000704700000014004070477047704770475C
:104D70002DE9F04102680446D0691168936840F655
:104D80000F0528424FF0000505D186067ED58E0618
:104D90007CD5616E1BE1994F03F001060F4037434C
:104DA00074D0C70709D0CF0507D501271762D4F8FB
:104DB000802042F00102C4F8802082070AD5DA0779
:104DC00008D0276802223A62D4F8802042F0040218
:104DD000C4F8802042070AD5DA0708D023680422E5
:104DE0001A62D4F8802042F00202C4F88020020740
:104DF0000CD501F02002324308D0236808221A6241
:104E0000D4F8802042F00802C4F8802002050BD5B7
:104E10004A0109D523684FF400621A62D4F8802051
:104E200042F02002C4F88020D4F88020002A35D037
:104E3000800605D5880603D5616E09B120468847EE
:104E4000D4F8800021688968490602D410F0280F40
:104E500026D0204604F090F82068806840061AD5D5
:104E60002068083050E8001F21F0400140E800129F
:104E7000002AF5D1206F70B161498163206FFDF781
:104E800090FA00280AD0206F816B01E00EE02046E6
:104E9000BDE8F04108472046FFF769FFBDE8F08113
:104EA0002046FFF764FFC4F88050F7E7276E2026FE
:104EB000012F7BD1C70679D5CF0677D51020106298
:104EC00020688068400641D5216F0868406800046A
:104ED000000CE3D0B4F858208242DFD9A4F85A007D
:104EE0000868006880062AD4206850E8001F21F472
:104EF000807140E80012002AF6D12068083050E89E
:104F0000001F21F0010140E80012002AF5D12068BD
:104F1000083050E8001F21F0400140E80012002A4C
:104F2000F5D1E6672566216851E8000F20F01000F2
:104F300041E80002002AF6D1206FFDF70DFAB4F81F
:104F40005800B4F85A10401A81B22AE0B4F8580058
:104F5000B4F85A10401A81B2B4F85A0000289DD013
:104F600000299BD0226852E8000F20F4907042E89C
:104F70000003002BF6D12068083050E8002F22F003
:104F8000010240E80023002BF5D1E667256665663F
:104F9000226852E8000F20F0100042E80003002BC6
:104FA000F6D12046FFF7E1FE78E7FFE7C70209D513
:104FB0005B0207D54FF4801010622046BDE8F04137
:104FC000FFF7D4BE020606D50A0604D5A16E002955
:104FD0007FF45DAF62E74006E6D54806E4D520469B
:104FE000026852E8001F21F0400142E80013002B44
:104FF000F6D18667856600F086F94FE72001000448
:105000007D8E000810B5040002D0A06F10B107E03B
:10501000012010BD002084F87400204600F026F81E
:105020002420A0672068016821F00101016020466A
:1050300003F0D4FF0128ECD0606A10B1204603F0E1
:105040008BFE2068416821F49041416020688168AE
:1050500021F02A0181602068016841F001010160AE
:105060002046BDE8104003F0DBBE00002DE9F04F04
:10507000A9B00746142123A8FBF785F98C216846BF
:10508000FBF781F953493868534D002402264FF04D
:1050900003094FF007084FF0904B4FF0800A884209
:1050A00052D1012000900E946846FEF79DF808B199
:1050B000FCF790FB286E40F480402866286E00F4D0
:1050C00080402890E86C40F00100E864E86C00F053
:1050D00001002890E86C40F00200E864E86CCDF82C
:1050E0009C8000F0020028904FF40070CDE9230668
:1050F000CDE92549454623A95846FDF773FBCDE97F
:105100002464CDE92695D04623A93448CDF88CA057
:10511000FDF768FB334D32482860C5E90164C5E9F5
:1051200003486C61AC61EC6128462C62FDF7C0F964
:1051300008B1FCF74FFB3D67002206212520AF6236
:10514000FDF7E4FF25203FE0274988423ED1009645
:1051500068460F94FEF748F808B1FCF73BFBA86DD2
:1051600040F40030A865A86D00F400302890E86C89
:1051700040F00100E864E86CCDF89C8000F001008C
:1051800028900C20CDE92306CDE9254923A95846CE
:10519000FDF728FB134D154848352860C5E9016423
:1051A000C5E9034A6C61AC61EC6128462C62FDF7ED
:1051B0007FF908B1FCF70EFB3D670022062126208F
:1051C000AF62FDF7A3FF2620FDF792FF29B000F0A4
:1051D0000FB80000003801400010024000040048F1
:1051E00080040240F8380020004400406C00024077
:1051F00030BCBDE8C08F000030B4C36F202B20D17D
:10520000E1B1DAB190F87430012B1AD0012380F8A3
:105210007430002303660C4C0368A3420BD05B6818
:105220001B0208D5046854E8003F43F0806344E85B
:105230000035002DF6D130BC03F0F4BF012030BCA6
:1052400070470220FBE70000008000407047704775
:105250002DE9F8430446806F1F4616460D46202868
:105260004FD1CDB1C6B194F87400012849D00120C6
:1052700084F874004FF00008C4F880802120A067F3
:10528000FDF7E6FBA4F850608146A4F85260A068E0
:10529000B0F5805F03D004E00120BDE8F883206909
:1052A00028B12E465FF0000584F8748010E00026D7
:1052B000FAE78021204604F007F8B8B9C6B116F81D
:1052C000010B21680885B4F85200401EA4F8520072
:1052D000B4F852004B464FF0000200970028E8D186
:1052E0004FF04001204603F0EFFF30B10320D4E738
:1052F00035F8020BC0F30800E3E72020A067002088
:10530000CBE70220C9E7704770B50C4CDDE90456C5
:1053100020706170A27023716571A67114232BF047
:1053200089FDE070A2786178207800F04BF8A279CE
:1053300061792079BDE8704000F046B86C02002029
:105340007047704700F066BF014900200870704741
:10535000190200200149012008707047190200203D
:1053600002480078002800D0012070471902002070
:1053700002F07EBB10B586B004001FD00022694643
:105380000F48FEF7B1FD002205A90D48FEF78AFD82
:105390009DF81700E0709DF8151061709DF81620BB
:1053A000A27014232BF046FD20709DF800002071A0
:1053B0009DF8010060719DF80200A07106B010BD5B
:1053C000CC32002002F014BD02F02CBD00210148B7
:1053D000FFF76ABCA43700200448C1680068491E72
:1053E0004908416300210148FFF7DCBBA4370020D6
:1053F00010B5012901D0022903D1401E0C31C0B2E1
:10540000C9B21A24491C11FB04F10A24B1FBF4F1BE
:1054100000EB900000EB930008441044594200EB6D
:105420004100401E00E0C01D0028FCDB072190FB6E
:10543000F1F201FB120000B90720C0B210BDFEE777
:1054400086B03D4E3D4C00254FF4FA7700231A46B6
:1054500004A9306822F0A4F8002869D102F080FA8B
:105460002070401E632800D9257002F03FFA806842
:10547000334988425CD133482178006812F059FEE4
:10548000227831A1684604F081F831486946006805
:1054900019F0F6FA2F4830A10288684604F076F831
:1054A0002E486946006819F0EBFADFF8B4802D4801
:1054B00098F90010006812F03CFE98F9002026A12F
:1054C000684604F063F828486946006819F0D8FA7D
:1054D000029503A902A8039521F042F90398DFF889
:1054E0008C8041B2224888F80010006812F021FE3A
:1054F00098F9002018A1684604F048F81D4869464C
:10550000006819F0BDFA029864214843962190FB87
:10551000F1F001B21848006812F00BFE0EA16846C7
:10552000029A04F033F815486946006819F0A8FAA1
:10553000384621F0F9FF89E7600200209504002039
:105540009C040020AC0400202532642525000000C6
:10555000B40400209A04002025640000C804002040
:10556000CC030020D0040020D8040020CD0300206C
:10557000E0040020E4040020E8040020F0040020FF
:10558000F0B5A9B08C216846FAF7FDFE4FF48070A3
:105590000025009016956846FDF726FE194CE06C34
:1055A00040F00100E064E06C00F001002890E06C45
:1055B00040F00400E064E06C122600F00400289043
:1055C00080202595CDE9230603270420CDE9267008
:1055D00023A9B006FDF706F960152595CDE9230648
:1055E0000620CDE9267023A90748FDF7FBF8A06D3A
:1055F00040F40000A065A06D00F40000289029B0E0
:10560000F0BD0000001002400008004801688A69EF
:10561000D243920701D400228A6200688169C9439B
:10562000C90703D0816941F0010181617047000021
:105630002DE9F047044600688A461746816900252F
:105640002E46C906A9464FF0200849D51021C16150
:1056500037E000BFBAF1FF3F33D0FDF7F9F9C11BC6
:10566000514502D8BAF1000F2BD12068416894F857
:10567000422001F480418369DB431B041CD4B1F553
:10568000804F19D0202A17D0416841F480414160F1
:10569000FDF7DEF907460FE0FDF7DAF9C01B192820
:1056A0000AD9606C40F02000606484F8418084F87E
:1056B000429084F84090012520688069C0438006AC
:1056C000EAD420688069C043800602D5002DC1D08D
:1056D00003E015B92168C1F81C8046F004060125D5
:1056E00021688869C20505D54FF4807246F001062D
:1056F000CA610125410509D522684FF4806146F051
:105700000806D1610125800502D40AE0800507D58D
:1057100021684FF4007046F00206C861012500E0E0
:105720008DB12046FFF772FF54F8240B4168074AF9
:1057300011404160206A3043206284F81D8084F863
:105740001E9084F81C902846BDE8F08700E800FE13
:105750002DE9F84304461646DDE9089714489846B3
:10576000DAB200900023204600F056F83A46494647
:10577000204600F0BBF8B8B9F5B2B8F1010F08D077
:105780002168300A88623A464946204600F0AEF861
:1057900050B9206885624B46002240212046009780
:1057A00000F052F8002800D00120BDE8F883000086
:1057B000002000802DE9F843044616461548984617
:1057C000DDE90897DAB2C3020090204600F024F821
:1057D0003A464946204600F089F8B8B9F5B2B8F122
:1057E000010F08D02168300A88623A4649462046AF
:1057F00000F07CF850B9206885624B460022802179
:105800002046009700F020F8002800D00120BDE8D5
:10581000F88300000020008010B5C1F3090141EABF
:1058200002410268029C19432143506821F0004163
:105830004FF4806303EA5453024C234398430843D4
:10584000506010BDFF63FF032DE9F0411D46174670
:105850000E460446DDF8188008E0681C06D0FDF707
:10586000F7F8A0EB0800A8420BD855B12068806972
:1058700036EA000012D00020B842EED00020BDE889
:10588000F08154F8440F40F0200044F8040920202F
:1058900060700020A07020700120F0E70120EBE78D
:1058A00070B516460D4604460DE0324629462046A0
:1058B000FFF7BEFE08B1012070BDFDF7C9F8801BDF
:1058C000A84207D835B120688069C0438006ECD46F
:1058D000002070BD54F8440F40F0200044F8040943
:1058E000202060700020A0702070E4E770B516469C
:1058F0000D4604460FE0324629462046FFF798FE43
:1059000008B1012070BD681C05D0FDF7A1F8801B0F
:10591000A84207D835B120688069C0438007EAD41F
:10592000002070BD54F8440F40F0200044F80409F2
:10593000202060700020A0702070E2E770B504465F
:10594000164886B0C16C41F00401C164C06C1421DA
:1059500000F0040005906846FAF715FDA0880125BF
:105960000226CDE90005CDE9025669462068FCF71C
:1059700039FFA089CDE90005CDE902566946A06846
:10598000FCF730FFA1890122A068FDF75BF8A18830
:1059900001222068FDF756F806B070BD00100240E5
:1059A0002DE9F0411C4617460D468046069E00F044
:1059B00003F96806010E404600F0BCF8404600F0CE
:1059C0003CF928B1404600F016F90120BDE8F0810D
:1059D0003946404600F0AEF8404600F02EF9404609
:1059E00000F0EAF8012000EB4500C1B2404600F0AB
:1059F000A1F8404600F021F90025671E0AE000BF2B
:105A000000F049F806F8010BBD4202D2404600F012
:105A100072F86D1CA5424046F2D300F0B1F8404642
:105A200000F0E9F80020D1E72DE9F0411D461646C7
:105A30000C46074600F0C0F86006010E384600F03C
:105A400079F8384600F0F9F828B1384600F0D3F874
:105A50000120BDE8F0813146384600F06BF8384649
:105A600000F0EBF8384600F0A7F8012000EB440006
:105A7000C1B2384600F05EF8384600F0DEF838462D
:105A800000F009F82870384600F07AF8384600F03F
:105A9000B2F80020DDE770B50646002402F0F7F901
:105AA0000121304602F026FA012008F05FFD0025B2
:105AB0006006040E0021304602F0E0F9022008F0F2
:105AC00055FD0121304602F0D9F9012008F04EFDC4
:105AD000304602F006FA08B144F00104012008F053
